:100000002BC100004AC1000048C1000046C10000E9
:1000100044C1000042C1000040C100003EC10000D8
:100020003CC100003AC1000038C1000036C10000E8
:1000300034C100000C946F0EDDC6000008C700003C
:1000400033C700005EC7000089C70000B4C70000C6
:10005000DFC700000C9435080C9462080C948F08DC
:100060001CC100001AC1000018C1000016C1000028
:1000700014C1000012C1000010C100000EC1000038
:100080000CC100000AC1000008C1000006C1000048
:1000900004C1000002C1000000C1000038C200001D
:1000A00068C2000098C20000C8C20000F6C000008C
:1000B000F4C00000F2C000000C94960E0C947E0A6E
:1000C0000C94AB0A0C94D80A0C94050B0C94320BCC
:1000D0000C945F0B0C948C0B0C94B90B0C94E60BEA
:1000E0000C94130CDAC00000D8C00000D6C0000089
:1000F000D4C00000D2C00000D0C00000CEC00000BC
:10010000CCC00000CAC00000C8C00000C6C00000CB
:10011000C4C00000C2C00000C0C0000030C1000068
:1001200060C1000090C10000C0C10000B6C0000066
:10013000B4C000000C94BC080C94E9080C94160997
:100140000C9443090C9470090C949D090C94CA09F1
:100150000C94F7090C94240A0C94510A9EC00000D8
:100160009CC000009AC0000098C0000096C000002B
:1001700094C0000092C0000090C000008EC000003B
:100180008CC000008AC0000088C0000086C000004B
:1001900084C0000082C0000080C000007EC000005B
:1001A0007CC000007AC0000078C0000076C000006B
:1001B0000C94400C0C946D0C0C949A0C0C94C70C81
:1001C0000C94F40C0C94210D68C0000066C0000073
:1001D00064C0000062C0000060C000005EC000009B
:1001E0005CC000005AC0000058C0000056C00000AB
:1001F00054C000000C9439150C94FD155C0657068C
:1002000052064D06480643063E062B102E103110AE
:10021000341037103A103D10C024C324C624C9241A
:10022000CC24CF24D224D524D824DB24DE24E124FA
:10023000E424E724EA24ED24F024F324F624F9242A
:10024000FC24FF240225052508250B250E25112554
:10025000142517251A251D2511241FBECFEFCDBF4C
:10026000DFE3DEBF00E00CBF15E2A0E0B0E2E2E0B9
:10027000F9E800E00BBF02C007900D92A23CB10765
:10028000D9F72AE2A2ECB5E201C01D92A93AB20761
:10029000E1F70E946B410C947F44B2CE4FB7F894C3
:1002A000282F392F211582E0380729F46093372A47
:1002B0007093382A07C02034324021F46093352AE5
:1002C0007093362A4FBF0895811522E0920771F48A
:1002D0008091C32591E0980F9093C325811116C09A
:1002E00062E081E090E00C946A17089580349240B7
:1002F00069F48091C22591E0980F9093C2258111F5
:1003000005C062E082E090E00C946A1708958115C0
:1003100022E0920769F48091C32581508093C32520
:10032000811115C062E081E090E00C94751708958A
:100330008034924061F48091C22581508093C2251F
:10034000811105C062E082E090E00C947517089579
:100350001F93CF93DF93EC011FB7F894B5DF88812B
:10036000816088831FBF9FB7F894E9E4FAE2818136
:100370008F5F81839FBFDF91CF911F9108951F925F
:100380000F920FB60F9211240BB60F922F933F933B
:100390004F935F936F937F938F939F93AF93BF938D
:1003A000EF93FF934091240250912502E091372A68
:1003B000F091382A61E080E092E01995FF91EF9189
:1003C000BF91AF919F918F917F916F915F914F916D
:1003D0003F912F910F900BBE0F900FBE0F901F906B
:1003E00018951F920F920FB60F9211240BB60F9211
:1003F0002F933F934F935F936F937F938F939F932D
:10040000AF93BF93EF93FF9340912C0250912D0235
:10041000E091372AF091382A62E080E092E0199565
:10042000FF91EF91BF91AF919F918F917F916F91CC
:100430005F914F913F912F910F900BBE0F900FBE88
:100440000F901F9018951F920F920FB60F921124C4
:100450000BB60F922F933F934F935F936F937F93BE
:100460008F939F93AF93BF93EF93FF934091340289
:1004700050913502E091372AF091382A64E080E00B
:1004800092E01995FF91EF91BF91AF919F918F915C
:100490007F916F915F914F913F912F910F900BBE84
:1004A0000F900FBE0F901F9018951F920F920FB6CE
:1004B0000F9211240BB60F922F933F934F935F939C
:1004C0006F937F938F939F93AF93BF93EF93FF931C
:1004D00040913C0250913D02E091372AF091382A38
:1004E00068E080E092E01995FF91EF91BF91AF91A4
:1004F0009F918F917F916F915F914F913F912F913C
:100500000F900BBE0F900FBE0F901F9018951F926B
:100510000F920FB60F9211240BB60F922F933F93A9
:100520004F935F936F937F938F939F93AF93BF93FB
:10053000EF93FF934091640250916502E091352A58
:10054000F091362A61E080E492E01995FF91EF91F5
:10055000BF91AF919F918F917F916F915F914F91DB
:100560003F912F910F900BBE0F900FBE0F901F90D9
:1005700018951F920F920FB60F9211240BB60F927F
:100580002F933F934F935F936F937F938F939F939B
:10059000AF93BF93EF93FF9340916C0250916D0224
:1005A000E091352AF091362A62E080E492E01995D4
:1005B000FF91EF91BF91AF919F918F917F916F913B
:1005C0005F914F913F912F910F900BBE0F900FBEF7
:1005D0000F901F9018951F920F920FB60F92112433
:1005E0000BB60F922F933F934F935F936F937F932D
:1005F0008F939F93AF93BF93EF93FF9340917402B8
:1006000050917502E091352AF091362A64E080E439
:1006100092E01995FF91EF91BF91AF919F918F91CA
:100620007F916F915F914F913F912F910F900BBEF2
:100630000F900FBE0F901F9018951F920F920FB63C
:100640000F9211240BB60F922F933F934F935F930A
:100650006F937F938F939F93AF93BF93EF93FF938A
:1006600040917C0250917D02E091352AF091362A2A
:1006700068E080E492E01995FF91EF91BF91AF910E
:100680009F918F917F916F915F914F913F912F91AA
:100690000F900BBE0F900FBE0F901F901895DF921A
:1006A000EF92FF920F931F93CF93DF93EC018B0197
:1006B000811522E0920771F461E270E082E0DAD005
:1006C000E82EF12C60E270E082E0D4D0FE2CEE2423
:1006D000E82A10C08034924051F565E270E082E073
:1006E000C9D0E82EF12C64E270E082E0C3D0FE2C89
:1006F000EE24E82ADFB6F894CE01E6DD888192E0A8
:100700009883EC86FD86F80125813681288F398F04
:1007100092819A8394819C8393819B839181998315
:1007200081709081892B8883CE01F1DDDFBEDF915E
:10073000CF911F910F91FF90EF90DF900895FF925E
:100740000F931F93CF93DF93EC018B01FFB6F894C7
:10075000BBDD8881807CF8018083888D998D8583BD
:1007600096838A8182838C8184838B818383898130
:100770008183CE01CCDDFFBEDF91CF911F910F9120
:10078000FF900895CF92DF92EF92FF920F931F9305
:10079000CF93DF937C01D62E8A01862F837029F4B4
:1007A000962F9695969582E002C0962F80E090FF56
:1007B0008F5FE701A09698E0899FC00DD11D11249D
:1007C000CFB6F894C70180DDF801808188838281EB
:1007D0008A8381818983D0FE02C083818E83C70191
:1007E00096DDCFBEDF91CF911F910F91FF90EF90DB
:1007F000DF90CF900895CF92DF92EF92FF920F9308
:100800001F93CF93DF937C01D62E8A01862F8370AE
:1008100029F4962F9695969582E002C0962F80E057
:1008200090FF8F5FE701A09698E0899FC00DD11DD2
:100830001124CFB6F894C70147DD8881F801808381
:100840008A81828389818183D0FE02C08E818383E5
:10085000C7015DDDCFBEDF91CF911F910F91FF905A
:10086000EF90DF90CF9008951BBEFC0128ED24BFD0
:10087000608308954091CA01E62FF72F8093CA0143
:1008800084914093CA01089550E0FA01E058FE4F68
:10089000811526E0920721F4262F206520830EC0C3
:1008A000803226E0920719F46865608308958034E9
:1008B00026E0920719F460666083089580369640BA
:1008C00011F4686660830895FC0180E096E08083FF
:1008D0009183128282E090E0838394831582168252
:1008E0001286138680E098E08487958780E498E0FC
:1008F000828B938B108A82E0818B88EE93E0A0E05C
:10090000B0E0848B958BA68BB78B84E090E08687D4
:10091000978708950F931F93FC016083718342832F
:100920000383148325831F910F910895FC01168280
:100930000895FC0163870895FC0164877587089515
:10094000FC0166877787089521E0FC01208B448BAA
:10095000558B668B778B0895FC01618B0895FC01A4
:10096000628B738B08952F923F924F925F926F929A
:100970007F928F929F92AF92BF92CF92DF92EF922F
:10098000FF920F931F93CF93DF93EC01E881F981DE
:1009900083E090E09C010A8002C0220F331F0A947A
:1009A000E2F722830A8002C0880F991F0A94E2F7B7
:1009B0008093B000E881F9818089887F9D819111C1
:1009C00090E4892B808B8E818823E9F0E881F9817E
:1009D00084E090E09C010A8002C0220F331F0A9439
:1009E000E2F722830A8002C0880F991F0A94E2F777
:1009F0008093B000E881F9818089887F9F8191117F
:100A000090E4892B808B62E080E090E00E946A177E
:100A10004B856A818881998137DFAB84B12C88E767
:100A2000A81A8EEFB80ACB80DC80E9EECE16E3E0A0
:100A3000DE06B8F0960136952795369527953695BA
:100A40002795A5ECB0E20E9499439C01329522952E
:100A50002F7023273F702327A0ECBDE50E94994308
:100A60001AC0E12CF12CD701C601880F991FAA1FCB
:100A7000BB1FC80ED91EEA1EFB1ECC0CDD1CEE1CD3
:100A8000FF1CCC0CDD1CEE1CFF1CC701B601660F61
:100A9000771F881F991F6B017C01683071058105E4
:100AA000910538F00F2EF7E0CF2ED12CE12CF12C50
:100AB000F02D8C2D8860F50180838E81882389F04C
:100AC000808198859295990F907E8061892B808393
:100AD0004B854F5F6A816E5F88819981D5DEF50114
:100AE000C1828C859D85DAD78B8598E0980FEC853F
:100AF000FD8583818071838383818066892B8383D5
:100B0000EC85FD8510A211A28E859F850197EC854D
:100B1000FD8586A397A3EC85FD858081807F81601C
:100B200080838889882309F414C1E989F0E0E857B3
:100B3000FE4FAB85B0E0A857BE4F8C918770808385
:100B400049896A81888199819FDE8A899B89A6D794
:100B5000898998E0980FEA89FB8983818071838372
:100B60008381806A892B8383EA89FB8910A211A281
:100B7000EA89FB898FEF9FEF86A397A3EA89FB8918
:100B8000E6FD04C081818061818303C08181806131
:100B900081836C897D898E899F8928EE33E040E0CE
:100BA00050E00E946F43CE84DF84E12CF12CCA0117
:100BB000B901A70196010E946F43EA89FB892E388B
:100BC0008BE538074105510528F48081807F8760D7
:100BD00080833EC027338EE6380781E04807510501
:100BE00028F48081807F8660808332C0293D88EB35
:100BF000380785E04807510528F48081807F8560AB
:100C0000808326C0213C86EC38078DE248075105D9
:100C100028F48081807F846080831AC021388DE829
:100C200038078BE54807510528F48081807F836071
:100C300080830EC021303B41474B510528F4808111
:100C4000807F8260808304C08081807F8160808318
:100C5000EA89FB898081E82FEF708E2F90E0FC01FC
:100C60003197E730F10530F48827E250FF4F8F4F7E
:100C70000C94914380E090E0DC0122C08DE89BE57C
:100C8000A0E0B0E01DC086E39EE6A1E0B0E018C0A1
:100C900088ED98EBA5E0B0E013C080EC96ECADE2F7
:100CA000B0E00EC080E89DE8ABE5B0E009C080E0B0
:100CB0009BE1A7EBB0E004C080E096E3AEE6B1E0D4
:100CC0001C012D01282F332D442D552D60E070E09F
:100CD00080E090E002E00E940644A22EB32EC42ED3
:100CE000D52EE62EF72EE82F192F05E00E94064498
:100CF0000E2F0E942844A22CB32CC42CD52CE12CFE
:100D0000F12C00E010E00E941F4403E00E94064422
:100D1000CC88DD88EE88FF8816012701AC2CB32C27
:100D2000C42CD52CE12CF12C00E00E94AA4302E057
:100D30000E9406442E843F84A22CB32CC12CD12CBB
:100D400000E00E94AA43288F398F4A8F5B8F1C8E48
:100D50001D8EDF91CF911F910F91FF90EF90DF904B
:100D6000CF90BF90AF909F908F907F906F905F904B
:100D70004F903F902F900895DC011C96ED91FC91CF
:100D80001D9780A191A10895DC011C96ED91FC9125
:100D90001D978185809581700895CF93DF93EC0135
:100DA000EA89FB89CF018074992720E030E005C0F3
:100DB00020A531A502C020A531A5009721F44485C6
:100DC00044FDF6CF03C0448544FDF5CF2115310520
:100DD00019F48C8D9D8D0BC040E050E0688D798DAD
:100DE0008A8D9B8D0E946F43C9012C8F3D8FDF91AF
:100DF000CF9108951F920F920FB60F9211240BB648
:100E00000F922F933F934F935F936F937F938F93A3
:100E10009F93AF93BF93EF93FF93E0910A26F091D6
:100E20000B26309709F01995FF91EF91BF91AF9183
:100E30009F918F917F916F915F914F913F912F91F2
:100E40000F900BBE0F900FBE0F901F9018951F9222
:100E50000F920FB60F9211240BB60F922F933F9360
:100E60004F935F936F937F938F939F93AF93BF93B2
:100E7000EF93FF93E0910826F0910926309709F04F
:100E80001995FF91EF91BF91AF919F918F917F91B4
:100E90006F915F914F913F912F910F900BBE0F90EB
:100EA0000FBE0F901F9018951F920F920FB60F92C2
:100EB00011240BB60F922F933F934F935F936F9331
:100EC0007F938F939F93AF93BF93EF93FF93E091A3
:100ED0000626F0910726309709F01995FF91EF91BA
:100EE000BF91AF919F918F917F916F915F914F9142
:100EF0003F912F910F900BBE0F900FBE0F901F9040
:100F000018951F920F920FB60F9211240BB60F92E5
:100F10002F933F934F935F936F937F938F939F9301
:100F2000AF93BF93EF93FF93E0910426F0910526D2
:100F3000309709F01995FF91EF91BF91AF919F9173
:100F40008F917F916F915F914F913F912F910F9072
:100F50000BBE0F900FBE0F901F9018951F920F920F
:100F60000FB60F9211240BB60F922F933F934F930E
:100F70005F936F937F938F939F93AF93BF93EF9301
:100F8000FF93E0910226F0910326309709F019951E
:100F9000FF91EF91BF91AF919F918F917F916F9151
:100FA0005F914F913F912F910F900BBE0F900FBE0D
:100FB0000F901F9018951F920F920FB60F92112449
:100FC0000BB60F922F933F934F935F936F937F9343
:100FD0008F939F93AF93BF93EF93FF93E09100267E
:100FE000F0910126309709F01995FF91EF91BF918B
:100FF000AF919F918F917F916F915F914F913F91B1
:101000002F910F900BBE0F900FBE0F901F90189551
:101010001F920F920FB60F9211240BB60F922F93BF
:101020003F934F935F936F937F938F939F93AF9370
:10103000BF93EF93FF93E091FE25F091FF2530974A
:1010400009F01995FF91EF91BF91AF919F918F9109
:101050007F916F915F914F913F912F910F900BBEB8
:101060000F900FBE0F901F9018951F920F920FB602
:101070000F9211240BB60F922F933F934F935F93D0
:101080006F937F938F939F93AF93BF93EF93FF9350
:10109000E091FC25F091FD25309709F01995FF911D
:1010A000EF91BF91AF919F918F917F916F915F91E0
:1010B0004F913F912F910F900BBE0F900FBE0F904D
:1010C0001F9018951F920F920FB60F9211240BB616
:1010D0000F922F933F934F935F936F937F938F93D1
:1010E0009F93AF93BF93EF93FF93E091FA25F09115
:1010F000FB25309709F01995FF91EF91BF91AF91C2
:101100009F918F917F916F915F914F913F912F911F
:101110000F900BBE0F900FBE0F901F9018951F924F
:101120000F920FB60F9211240BB60F922F933F938D
:101130004F935F936F937F938F939F93AF93BF93DF
:10114000EF93FF93E091F825F091F925309709F09E
:101150001995FF91EF91BF91AF919F918F917F91E1
:101160006F915F914F913F912F910F900BBE0F9018
:101170000FBE0F901F9018951F920F920FB60F92EF
:1011800011240BB60F922F933F934F935F936F935E
:101190007F938F939F93AF93BF93EF93FF93E091D0
:1011A000F625F091F725309709F01995FF91EF9109
:1011B000BF91AF919F918F917F916F915F914F916F
:1011C0003F912F910F900BBE0F900FBE0F901F906D
:1011D00018951F920F920FB60F9211240BB60F9213
:1011E0002F933F934F935F936F937F938F939F932F
:1011F000AF93BF93EF93FF93E091F425F091F52522
:10120000309709F01995FF91EF91BF91AF919F91A0
:101210008F917F916F915F914F913F912F910F909F
:101220000BBE0F900FBE0F901F9018951F920F923C
:101230000FB60F9211240BB60F922F933F934F933B
:101240005F936F937F938F939F93AF93BF93EF932E
:10125000FF93E091F225F091F325309709F019956D
:10126000FF91EF91BF91AF919F918F917F916F917E
:101270005F914F913F912F910F900BBE0F900FBE3A
:101280000F901F9018951F920F920FB60F92112476
:101290000BB60F922F933F934F935F936F937F9370
:1012A0008F939F93AF93BF93EF93FF93E091F025BC
:1012B000F091F125309709F01995FF91EF91BF91C9
:1012C000AF919F918F917F916F915F914F913F91DE
:1012D0002F910F900BBE0F900FBE0F901F9018957F
:1012E0001F920F920FB60F9211240BB60F922F93ED
:1012F0003F934F935F936F937F938F939F93AF939E
:10130000BF93EF93FF93E091EE25F091EF25309797
:1013100009F01995FF91EF91BF91AF919F918F9136
:101320007F916F915F914F913F912F910F900BBEE5
:101330000F900FBE0F901F9018951F920F920FB62F
:101340000F9211240BB60F922F933F934F935F93FD
:101350006F937F938F939F93AF93BF93EF93FF937D
:10136000E091EC25F091ED25309709F01995FF916A
:10137000EF91BF91AF919F918F917F916F915F910D
:101380004F913F912F910F900BBE0F900FBE0F907A
:101390001F9018951F920F920FB60F9211240BB643
:1013A0000F922F933F934F935F936F937F938F93FE
:1013B0009F93AF93BF93EF93FF93E091EA25F09152
:1013C000EB25309709F01995FF91EF91BF91AF91FF
:1013D0009F918F917F916F915F914F913F912F914D
:1013E0000F900BBE0F900FBE0F901F9018951F927D
:1013F0000F920FB60F9211240BB60F922F933F93BB
:101400004F935F936F937F938F939F93AF93BF930C
:10141000EF93FF93E091E825F091E925309709F0EB
:101420001995FF91EF91BF91AF919F918F917F910E
:101430006F915F914F913F912F910F900BBE0F9045
:101440000FBE0F901F9018951F920F920FB60F921C
:1014500011240BB60F922F933F934F935F936F938B
:101460007F938F939F93AF93BF93EF93FF93E091FD
:10147000E625F091E725309709F01995FF91EF9156
:10148000BF91AF919F918F917F916F915F914F919C
:101490003F912F910F900BBE0F900FBE0F901F909A
:1014A00018951F920F920FB60F9211240BB60F9240
:1014B0002F933F934F935F936F937F938F939F935C
:1014C000AF93BF93EF93FF93E091E425F091E5256F
:1014D000309709F01995FF91EF91BF91AF919F91CE
:1014E0008F917F916F915F914F913F912F910F90CD
:1014F0000BBE0F900FBE0F901F9018951F920F926A
:101500000FB60F9211240BB60F922F933F934F9368
:101510005F936F937F938F939F93AF93BF93EF935B
:10152000FF93E091E225F091E325309709F01995BA
:10153000FF91EF91BF91AF919F918F917F916F91AB
:101540005F914F913F912F910F900BBE0F900FBE67
:101550000F901F9018951F920F920FB60F921124A3
:101560000BB60F922F933F934F935F936F937F939D
:101570008F939F93AF93BF93EF93FF93E091E025F9
:10158000F091E125309709F01995FF91EF91BF9106
:10159000AF919F918F917F916F915F914F913F910B
:1015A0002F910F900BBE0F900FBE0F901F901895AC
:1015B0001F920F920FB60F9211240BB60F922F931A
:1015C0003F934F935F936F937F938F939F93AF93CB
:1015D000BF93EF93FF93E091DE25F091DF253097E5
:1015E00009F01995FF91EF91BF91AF919F918F9164
:1015F0007F916F915F914F913F912F910F900BBE13
:101600000F900FBE0F901F9018951F920F920FB65C
:101610000F9211240BB60F922F933F934F935F932A
:101620006F937F938F939F93AF93BF93EF93FF93AA
:10163000E091DC25F091DD25309709F01995FF91B7
:10164000EF91BF91AF919F918F917F916F915F913A
:101650004F913F912F910F900BBE0F900FBE0F90A7
:101660001F9018951F920F920FB60F9211240BB670
:101670000F922F933F934F935F936F937F938F932B
:101680009F93AF93BF93EF93FF93E091DA25F0918F
:10169000DB25309709F01995FF91EF91BF91AF913C
:1016A0009F918F917F916F915F914F913F912F917A
:1016B0000F900BBE0F900FBE0F901F9018951F92AA
:1016C0000F920FB60F9211240BB60F922F933F93E8
:1016D0004F935F936F937F938F939F93AF93BF933A
:1016E000EF93FF93E091D825F091D925309709F039
:1016F0001995FF91EF91BF91AF919F918F917F913C
:101700006F915F914F913F912F910F900BBE0F9072
:101710000FBE0F901F9018951F920F920FB60F9249
:1017200011240BB60F922F933F934F935F936F93B8
:101730007F938F939F93AF93BF93EF93FF93E0912A
:10174000D625F091D725309709F01995FF91EF91A3
:10175000BF91AF919F918F917F916F915F914F91C9
:101760003F912F910F900BBE0F900FBE0F901F90C7
:1017700018951F920F920FB60F9211240BB60F926D
:101780002F933F934F935F936F937F938F939F9389
:10179000AF93BF93EF93FF93E091D425F091D525BC
:1017A000309709F01995FF91EF91BF91AF919F91FB
:1017B0008F917F916F915F914F913F912F910F90FA
:1017C0000BBE0F900FBE0F901F9018951F920F9297
:1017D0000FB60F9211240BB60F922F933F934F9396
:1017E0005F936F937F938F939F93AF93BF93EF9389
:1017F000FF93E091D225F091D325309709F0199508
:10180000FF91EF91BF91AF919F918F917F916F91D8
:101810005F914F913F912F910F900BBE0F900FBE94
:101820000F901F9018951F920F920FB60F921124D0
:101830000BB60F922F933F934F935F936F937F93CA
:101840008F939F93AF93BF93EF93FF93E091D02536
:10185000F091D125309709F01995FF91EF91BF9143
:10186000AF919F918F917F916F915F914F913F9138
:101870002F910F900BBE0F900FBE0F901F901895D9
:101880001F920F920FB60F9211240BB60F922F9347
:101890003F934F935F936F937F938F939F93AF93F8
:1018A000BF93EF93FF93E091CE25F091CF25309732
:1018B00009F01995FF91EF91BF91AF919F918F9191
:1018C0007F916F915F914F913F912F910F900BBE40
:1018D0000F900FBE0F901F9018951F920F920FB68A
:1018E0000F9211240BB60F922F933F934F935F9358
:1018F0006F937F938F939F93AF93BF93EF93FF93D8
:10190000E091CC25F091CD25309709F01995FF9104
:10191000EF91BF91AF919F918F917F916F915F9167
:101920004F913F912F910F900BBE0F900FBE0F90D4
:101930001F9018951F920F920FB60F9211240BB69D
:101940000F922F933F934F935F936F937F938F9358
:101950009F93AF93BF93EF93FF93E091CA25F091CC
:10196000CB25309709F01995FF91EF91BF91AF9179
:101970009F918F917F916F915F914F913F912F91A7
:101980000F900BBE0F900FBE0F901F9018951F92D7
:101990000F920FB60F9211240BB60F922F933F9315
:1019A0004F935F936F937F938F939F93AF93BF9367
:1019B000EF93FF93E091C825F091C925309709F086
:1019C0001995FF91EF91BF91AF919F918F917F9169
:1019D0006F915F914F913F912F910F900BBE0F90A0
:1019E0000FBE0F901F9018951F920F920FB60F9277
:1019F00011240BB60F922F933F934F935F936F93E6
:101A00007F938F939F93AF93BF93EF93FF93E09157
:101A1000C625F091C725309709F01995FF91EF91F0
:101A2000BF91AF919F918F917F916F915F914F91F6
:101A30003F912F910F900BBE0F900FBE0F901F90F4
:101A400018951F920F920FB60F9211240BB60F929A
:101A50002F933F934F935F936F937F938F939F93B6
:101A6000AF93BF93EF93FF93E091C425F091C52509
:101A7000309709F01995FF91EF91BF91AF919F9128
:101A80008F917F916F915F914F913F912F910F9027
:101A90000BBE0F900FBE0F901F901895CF93CFB72E
:101AA000F894282F392F211588E0380759F461E080
:101AB00083E090E00E946A1764E083E090E00E9477
:101AC0006A175BC0203488E0380759F462E083E08D
:101AD00090E00E946A1764E083E090E00E946A1739
:101AE0004CC0211589E0380759F461E084E090E0AA
:101AF0000E946A1764E084E090E00E946A173DC08B
:101B0000203489E0380759F462E084E090E00E94D4
:101B10006A1764E084E090E00E946A172EC02115E5
:101B20008AE0380759F461E085E090E00E946A1786
:101B300064E085E090E00E946A171FC020348AE0CC
:101B4000380759F462E085E090E00E946A1764E08B
:101B500085E090E00E946A1710C021153B4059F4BF
:101B600061E086E090E00E946A1764E086E090E021
:101B70000E946A1702C0CFBF09C09FB7F894E9E47A
:101B8000FAE281818F5F81839FBFCFBFCF9108959C
:101B9000CF93DF93E0910C26F0910D26848183FF93
:101BA0000BC08860848383E0838386EF9FEF8093FC
:101BB00016269093172690C0982F947149F083E0D1
:101BC00083838FEF9FEF809316269093172684C010
:101BD00086FF45C0CCE0D6E2AA81BB818C819D8185
:101BE00014962D913C911597821793076CF49C01E4
:101BF0002F5F3F4F2093102630931126A80FB91F57
:101C000011968C91878368C080911226909113263B
:101C100018962D913C91199782179307C8F420913B
:101C20001426222321F086818160868355C0169672
:101C30002D913C911797AC014F5F5F4F4093122657
:101C400050931326D901A80FB91F8C91878344C0E4
:101C500083E0838310921626109217263DC08823B6
:101C6000ACF5ACE0B6E21296CD91DC9113971696E6
:101C70008D919C9117972885398582179307E8F4F1
:101C80006E817F819C012F5F3F4F209312263093FE
:101C900013264781DB01A80FB91F4C9388859985CE
:101CA0002817390718F482E0838316C087E08383FE
:101CB00010921626109217260FC083E0838389EFB7
:101CC0009FEF809316269093172606C08BEF9FEF09
:101CD0008093162690931726DF91CF9108951F9237
:101CE0000F920FB60F9211240BB60F922F933F93C2
:101CF0004F935F936F937F938F939F93AF93BF9314
:101D0000EF93FF9345DFFF91EF91BF91AF919F91CB
:101D10008F917F916F915F914F913F912F910F9094
:101D20000BBE0F900FBE0F901F9018951F920F9231
:101D30000FB60F9211240BB60F922F933F934F9330
:101D40005F936F937F938F939F93AF93BF93EF9323
:101D5000FF931EDFFF91EF91BF91AF919F918F9104
:101D60007F916F915F914F913F912F910F900BBE9B
:101D70000F900FBE0F901F901895FC01DB01149679
:101D80008C91858388E7818381E08483ECE0F6E2AF
:101D9000118612861386E0EAF0E0828181608283F8
:101DA000789480E090E00895CF93DF93EC01FB01FD
:101DB000892B09F451C0309709F451C09285809164
:101DC0001526882319F09923F1F34CC08FB7F894A6
:101DD000ACE0B6E291E019969C93199720E83FEFAA
:101DE0001A962D933C931B978FBFCD93DC9311973D
:101DF00012966D937C93139714961D921C921597CF
:101E000016961D921C92179718964C938081880FF6
:101E100024813581232B11F4411102C08E8302C02D
:101E200081608E83ECE0F6E22285338520383F4FD7
:101E3000D9F38C818370813049F0ACE0B6E2ED914A
:101E4000FC911197848183708130C9F7ECE0F6E250
:101E500082859385118608C088EF9FEF05C088EFC3
:101E60009FEF02C086EF9FEFDF91CF910895811120
:101E700018C09091A428992389F02FB7F894E9E429
:101E8000FAE29181915091832FBF08C02FB7F89447
:101E9000E9E4FAE291819F5F91832FBF8093A428A8
:101EA00008959091A428992389F3F8CF0F93E8EC33
:101EB000F4E080818F7D808380818F7D8083E8E363
:101EC000F8E202E0059310923A2810923B2800E2D3
:101ED000069300E40693E0E3F8E200E2069300E4F0
:101EE0000693E9E3FAE214861586168617861286AB
:101EF000138610921128109212280F9108950F93B3
:101F000085E090E08093112890931228E9E3F8E2AD
:101F100004E00593E1E3F8E204E005930F910895EE
:101F20000F9383E090E080931128909312281092F1
:101F30003A2810923B28E8E3F8E202E006930F917A
:101F40000895E091452AF091462A309709F01995B5
:101F500008950F93CF93DF938091112890911228C9
:101F6000039719F4EEDFA2DF61C080910D289091F4
:101F70000E28C091432AD091442AC81BD90B89F559
:101F800020910F2830911028820F931F80930F28E3
:101F90009093102820913F2A3091402A821793076E
:101FA00021F080911826882359F084E090E08093F6
:101FB000112890931228E0E3F8E202E0069336C07D
:101FC000E091472AF091482A309799F01995882393
:101FD00081F010920D2810920E28C091432AD091C2
:101FE000442AC830D10528F010921826C8E0D0E065
:101FF00003C081E080931826E4E1F8E2C6A3D7A3EA
:1020000080910D2890910E282091412A3091422AEA
:10201000280F391F20A731A7C80FD91FC0930D283B
:10202000D0930E28E8E3F8E202E00693DF91CF9127
:102030000F910895FC018181E82FE7708E2F90E0C9
:10204000FC013197E730F105D8F48827EB5FFE4FAC
:102050008F4F0C94914380E190E0089580E290E0EE
:10206000089580E490E0089580E890E0089580E08D
:1020700091E0089580E092E008958FEF93E0089555
:1020800088E090E00895282F2F7030E0220F331F52
:10209000082E000C990B8827990F881F9927820F0B
:1020A000931F02979C01220F331F220F331F220F11
:1020B000331F820F931F8756984D08950F93CF9328
:1020C0008091CC0480FF6BC081E08093CC04E0E37E
:1020D000F8E200E80693E8E3F8E200E8069380936C
:1020E000CA04E0E3F8E200E10693809111289091A0
:1020F0001228009729F00397029708F422DFD6DE12
:102100008091322890913328089709F04AC088E0DE
:10211000E5E0F8E2A9E3BAE201900D928A95E1F7D1
:10212000E8ECF4E08081806280838081806280833B
:102130000E94401CC82F811103C0E1DEC1E032C003
:102140008091392A882384F410920F281092102845
:1021500010920D2810920E2882E090E080931128B2
:1021600090931228F6DE1EC080913F2A9091402A5B
:10217000892B11F4D5DE16C010920F28109210286A
:1021800010920D2810920E2881E090E08093112883
:1021900090931228E0E3F8E202E0069303C0C0E067
:1021A00001C0C1E08C2FCF910F9108958F929F9223
:1021B000AF92BF92DF92EF92FF920F931F93CF9354
:1021C000DF93D82E60DF8C01CD2DCF70D0E0CE0113
:1021D000880F991FCD2D0D2C000CDD0BCC27DD0FAA
:1021E000CC1FDD27C80FD91FCE01880F991F880F7C
:1021F000991F880F991F9C01205D374D7901C901F6
:1022000019DF4C01DD200CF07BC0FE01EE0FFF1F3B
:10221000EE0FFF1FEE0FFF1FEC5EF74D22A133A163
:10222000D80115968D919C911697820F931F159644
:102230008D939C93169713962D913C91149782172A
:10224000930709F447C0281B390B2115B4E03B075D
:1022500040F02FEF33E0C901B4010E945B43281B1B
:10226000390BF801808181FF0AC0C901B4010E94C5
:102270005B4341E0892B09F040E0842F01C080E0FE
:10228000D8019C9180FB91F99C93FE01EE0FFF1FFA
:10229000EE0FFF1FEE0FFF1FEC5EF74D12A213A211
:1022A000268F378F11962D913C91129715968D910F
:1022B0009C911697820F931FCC0FDD1FCC0FDD1F53
:1022C000CC0FDD1FCC5CD74D88839983F70102E0EA
:1022D0000693E5C0D8018C9181FFCDC08D7F8C9392
:1022E000CC0FDD1FCC0FDD1FCC0FDD1FCC5ED74D1B
:1022F0001AA21BA21E8E1F8EF70102E00693CFC00A
:10230000FE01EE0FFF1FEE0FFF1FEE0FFF1FEC5E33
:10231000F74DA68CB78CD8018C9182FF1BC011960B
:10232000ED91FC91129715962D913C91169713966D
:102330008D919C911497B4010E945B43B0E4DB9EA5
:10234000B001112467527A4DAC01CF01820F931F67
:102350000E943A44F801258136812A0D3B1D2583D0
:102360003683838194818217930768F485839683EB
:10237000CC0FDD1FCC0FDD1FCC0FDD1FCC5ED74D8A
:102380008AA19BA178C0FE01EE0FFF1FEE0FFF1F79
:10239000EE0FFF1FEC5EF74D42A153A1A416B50648
:1023A00009F069C02817390709F465C0AC01421B60
:1023B000530B9A01211554E0350748F02FEF33E015
:1023C000C901B4010E945B43281B390B06C0C90137
:1023D000B4010E945B43281B390BFE01EE0FFF1F67
:1023E000EE0FFF1FEE0FFF1FEC5EF74D168E178EE0
:1023F0002815390500F5D8018C9184608C93B0E4E0
:10240000DB9EC001112487529A4DFE01EE0FFF1F83
:10241000EE0FFF1FEE0FFF1FEC5CF74D80839183E3
:10242000CC0FDD1FCC0FDD1FCC0FDD1FCC5ED74DD9
:102430008AA29BA21CC0F8014181528185819681AC
:10244000840F951FFE01EE0FFF1FEE0FFF1FEE0F13
:10245000FF1FEC5CF74D80839183CC0FDD1FCC0F09
:10246000DD1FCC0FDD1FCC5ED74D2AA33BA3F701A8
:1024700002E0069314C0D8018C9180FF10C08E7FBB
:102480008C931796ED91FC911897309741F0159623
:102490006D917C9116974D2D80E090E01995DF911C
:1024A000CF911F910F91FF90EF90DF90BF90AF9071
:1024B0009F908F900895CF93DF93C0E6D0E018826D
:1024C00080E31DD5E0ECF4E080818064808381E0CE
:1024D0008883CFB7F89480E090E0FC01EE0FFF1FF7
:1024E000EE0FFF1FEE0FFF1FEC5EF74D158E0196EE
:1024F0008E30910591F780E090E0FC01EE0FFF1F18
:10250000EE0FFF1FEE0FFF1FE80FF91FE756F84D04
:1025100020812E7F208301968C30910571F76AE12E
:1025200070E082E00E943A048F3F19F08093FA0431
:1025300003C08FE18093FA046BE170E082E00E94B7
:102540003A048F3F19F08093FB0403C08FE180931E
:10255000FB04E0ECF4E08081866080838081806809
:10256000808380818061808380E398E28683978383
:102570008081806280838FEF8093C504E8ECF4E073
:102580008081816080831092A4289FB7F894E9E449
:10259000FAE285818F5F85839FBFCFBFDF91CF91A7
:1025A0000895CF93CFB7F894E1ECF4E080818E7F6B
:1025B00080831092C0041082DBD480E058DC9FB787
:1025C000F894E9E4FAE28581815085839FBFCFBF0B
:1025D000CF910895CF93CFB7F89481E048DCEAEC2F
:1025E000F4E080E4808380E28083E1ECF4E08081A9
:1025F00081608083A9ECB4E08C9182608C93E8ECDC
:10260000F4E08081806480838C9181608C938081F0
:1026100080688083CFBFCF9108958093C3040895CD
:102620008091C3040895E9E3FAE280879187628785
:1026300073870895282F2F7030E0220F331F082E44
:10264000000C990B8827990F881F9927820F931FD9
:10265000FC01EE0FFF1FEE0FFF1FEE0FFF1FEC5EE2
:10266000F74D258D207C09F05FC06370613019F053
:1026700020F460E403C060EC01C060E8403851051C
:10268000E9F050F440325105A9F040345105A1F071
:1026900040315105D9F40CC0411522E0520791F0A8
:1026A0004F3F23E0520781F04115514079F408C0B3
:1026B00021E00DC022E00BC023E009C024E007C0E8
:1026C00025E005C026E003C027E001C020E0FC01B2
:1026D000EE0FFF1FEE0FFF1FEE0FFF1FEC5EF74D1B
:1026E000158E36E0348F262B258F258D207C203CBF
:1026F00069F4FC01EE0FFF1FEE0FFF1FEE0FFF1F2F
:10270000EC5EF74D258D2770273081F0880F991FDB
:10271000880F991F880F991FFC01EC5EF74D858D7E
:102720008062858F81E0089580E0089581E00895BA
:10273000E82FEF70F0E0EE0FFF1F082E000C990B52
:102740008827990F881F9927E80FF91FEE0FFF1FA1
:10275000EE0FFF1FEE0FFF1FEC5EF74D858D82FB26
:10276000882780F90895282F2F7030E0A901440FA1
:10277000551F282F082E000C330B2227330F221F42
:102780003327240F351FF901EE0FFF1FEE0FFF1F38
:10279000EE0FFF1FEC5EF74D958D92FF17C0220FD5
:1027A000331F220F331F220F331FF901EC5EF74D49
:1027B000958D9B7F958F67DCFC01808180FF06C033
:1027C0008E7F80830780F085E02D199581E0089544
:1027D0008F929F92AF92BF92CF92DF92EF92FF9231
:1027E0000F931F93CF93DF93982E862E6A01790162
:1027F0004ADC5C01292DC92DCF70D0E0CE01880FB5
:10280000991FC92D092C000CDD0BCC27DD0FCC1F27
:10281000DD27C80FD91FFE01EE0FFF1FEE0FFF1FB0
:10282000EE0FFF1FEC5EF74D858D807C09F47EC0B6
:10283000FE01EE0FFF1FEE0FFF1FEE0FFF1FEC5EFE
:10284000F74D858D807C803C61F0FE01EE0FFF1F0F
:10285000EE0FFF1FEE0FFF1FEC5EF74D858D82FD23
:1028600067C08FB7F894F501908190FF03C08FBFC8
:1028700080E05FC0F5019081916090838FBFC1823D
:10288000D282E382F4821582168207831087811038
:1028900006C091E0E114F10419F090E001C091E06C
:1028A000F501808190FB81F98B7F808322235CF48A
:1028B000CC0FDD1FCC0FDD1FCC0FDD1FCC5ED74D45
:1028C0001AA21BA22FC0FE01EE0FFF1FEE0FFF1F6B
:1028D000EE0FFF1FEC5EF74D858D807C803CB1F4E0
:1028E000CE01880F991F880F991F880F991F805D4F
:1028F000974DA0DBBC01C7010E945B43892B31F0DF
:10290000F50180818E7F808380E013C0CC0FDD1FB6
:10291000CC0FDD1FCC0FDD1FCC5ED74D1E8E1F8E62
:102920001AA21BA2892D42DC81E003C080E001C015
:1029300080E0DF91CF911F910F91FF90EF90DF909A
:10294000CF90BF90AF909F908F900895FF920F937C
:102950001F93CF93DF93182FC82FCF70D0E0CE01F5
:10296000880F991FC12F012E000CDD0BCC27DD0F26
:10297000CC1FDD27C80FD91F812F85DBDC01FE01AD
:10298000EE0FFF1FEE0FFF1FEE0FFF1FE05DF74D75
:1029900002E005938C9180FF23C08E7F8C93179665
:1029A000ED91FC9118973097D9F011235CF4CC0F7E
:1029B000DD1FCC0FDD1FCC0FDD1FCC5ED74D6AA114
:1029C0007BA10AC0CC0FDD1FCC0FDD1FCC0FDD1F9C
:1029D000CC5ED74D6E8D7F8D412F81E090E01995B3
:1029E000DF91CF911F910F91FF900895CF93C82F42
:1029F000ADDFEC2FEF70F0E0EE0FFF1F8C2FCC0F50
:102A0000990B8827990F881F9927E80FF91FEE0F58
:102A1000FF1FEE0FFF1FEE0FFF1FEC5EF74D158E31
:102A2000CF9108950F93E82FEF70F0E0EE0FFF1FA6
:102A3000282F082E000C330B2227330F221F332799
:102A4000E20FF31FEE0FFF1FEE0FFF1FEE0FFF1F32
:102A5000DF01AC5EB74D5D969C915D9794605D968D
:102A60009C93E05DF74D01E0069370DF81E00F91EC
:102A700008951F920F920FB60F9211240BB60F926A
:102A80000F932F933F934F935F936F937F938F9306
:102A90009F93AF93BF93CF93EF93FF938091CB041A
:102AA00088233CF480E88093CA04BAD60E94732736
:102AB0008FC08091CB0482FF23C084E08093CA043E
:102AC0008091382886FF84C08091CC0481FD80C02D
:102AD000F5DA81117DC08091112890911228813002
:102AE000910511F41DDA74C0049709F071C0E9E38F
:102AF000F8E204E00593E1E3F8E204E0059368C03E
:102B00008091CB0481FF5FC082E08093CA048091F2
:102B1000302886FF5DC08091CC0481FD59C0CEDA9B
:102B2000811156C080911128909112288230910510
:102B300059F484E090E08093112890931228E0E308
:102B4000F8E202E0069344C0039709F041C0E9E3CC
:102B5000F8E204E00593E1E3F8E204E0059338C00D
:102B600080E18093CA04C1E08C2FF0DE8C2F806856
:102B7000EDDECF5FC630C1F72AD61092C304E4E180
:102B8000F8E2158E96E0948F80E4858F15A294A3C9
:102B900085A385E098E280A391A388D919C080918C
:102BA000CB0486FF06C080E48093CA0480E05FD92E
:102BB0000FC08091CB0485FF0BC080E28093CA04D4
:102BC00081E055D905C08091CB0484FDC9CFE7CF02
:102BD000FF91EF91CF91BF91AF919F918F917F9195
:102BE0006F915F914F913F912F910F910F900BBE7D
:102BF0000F900FBE0F901F9018951F920F920FB657
:102C00000F9211240BB60F920F931F932F933F93A4
:102C10004F935F936F937F938F939F93AF93BF93E4
:102C2000CF93DF93EF93FF938091CC0481FD03C09A
:102C300045DA8111C4C082E08093CC048091C50440
:102C40008195880FE0E3F8E2E81BF10920813181EA
:102C500020533842369527953695279536952795F2
:102C6000822F869520FD02C090E001C090E8890F78
:102C7000E82FEF70F0E0EE0FFF1F282F082E000C5A
:102C8000330B2227330F221F3327E20FF31FDF01FD
:102C9000AA0FBB1FAA0FBB1FAA0FBB1FAC5EB74D6D
:102CA0005C969C9195FF8BC0EE0FFF1FEE0FFF1FF0
:102CB000EE0FFF1FE05DF74D00E2069381117AC031
:102CC0008091112890911228049719F43AD9EED8DE
:102CD00076C000913228109133288091432A909138
:102CE000442AC0910D28D0910E2898012C0F3D1F29
:102CF0008217930718F48C010C1B1D0B8091412A3D
:102D00009091422AA80165E078E28C0F9D1F0E94F5
:102D10003A44C00FD11FC0930D28D0930E2808301D
:102D2000110569F480910F28909110288C0F9D1F38
:102D300020913F2A3091402A8217930780F0E9E3DF
:102D4000FAE2C287D3870684F785E02D309729F011
:102D50001995811102C0D3D832C0E2D830C0809119
:102D6000432A9091442AC817D907F9F4E091472AD9
:102D7000F091482A309711F4C2D821C019958111D9
:102D800002C0BDD81CC020910F283091102880911E
:102D90000D2890910E28820F931F80930F289093F7
:102DA000102810920D2810920E28E0E3F8E202E0BD
:102DB000069305C0803811F4CCD801C0F7D9FF9133
:102DC000EF91DF91CF91BF91AF919F918F917F91C3
:102DD0006F915F914F913F912F911F910F910F90A4
:102DE0000BBE0F900FBE0F901F9018950F931F935F
:102DF000CF93DF9300D01F92CDB7DEB78FEF8093D4
:102E000070008093710080937200809373008093B0
:102E10007400809375008093760064E081E490E014
:102E20000E9434046CE170E082E00E943A048A83DC
:102E30006DE170E082E00E943A04898389819A8181
:102E4000019621F480E493E289839A8389819A81AF
:102E50008B839C83E0E6F0E082838C8183839FB741
:102E6000F894E0E5F0E08081826080839FBF8181FB
:102E700081FFFDCF9FB7F89400E510E0D8011696CA
:102E80008C911697897F16968C931697E0E6F0E062
:102E900080E885838BEB868316968C9116978460E9
:102EA00016968C938081816080839FBF61E080E46F
:102EB00090E00E9434049FB7F894F80180818E7FDF
:102EC00080839FBF2496CDBFDEBFDF91CF911F913E
:102ED0000F9108952FB7F894FC01E059FF4F6095CA
:102EE0008081682360832FBF08952FB7F894FC0179
:102EF000E059FF4F8081682B60832FBF0895863093
:102F000011F060E001C068E18091510081FD26C0B0
:102F10009FB7F894E0E5F0E08081826080839FBFF6
:102F2000818181FFFDCF9FB7F894A0E5B0E01696B0
:102F30008C911697897F16968C931697E0E6F0E0B1
:102F400080E885838BEB868316968C911697846038
:102F500016968C938081816080839FBF636084E438
:102F600090E00E94340460E480E090E0B3CF0895E4
:102F700060E480E090E0B9DF60E084E490E00C94ED
:102F800034040895CF93DF93FC0120E030E0C62F96
:102F9000D0E0DE01022E02C0B595A7950A94E2F7B3
:102FA000A0FD508B2F5F3F4F31962830310589F7B8
:102FB00040FF0AC041FF03C0FC01658302C0FC0161
:102FC0006683FC01618302C0FC016283DF91CF91C3
:102FD0000895089580E0089530913B2A20913C2A7D
:102FE000822F90E00397C1F4311118C080913F2ADD
:102FF0009091402A0497A1F4E9E3FAE286EA98E284
:103000008087918782E498E18487958784E090E0C7
:103010008287938781E0089580E0089580E0089595
:1030200080E0089581E08093DA2808950F931F933C
:103030000DE218E128E130E04AEA58E260E082E07F
:10304000C7DB1F910F9108951092DC281092DB28A6
:1030500081E08093DA28EACF0895892B41F4683122
:10306000710521F48AEA98E20E944D43DFCF08956A
:103070002CEE37E142EB50E26BED78E28CED98E21A
:103080001AC208958091432A9091442A049721F40A
:1030900086EA98E20C943D4308950F931F93CF93D3
:1030A000FC018091DA28882301F1CFB7F89488E1F8
:1030B00022EC38E2D9011D928A95E9F788E1D9011D
:1030C00001900D928A95E1F702E118E128E130E0E4
:1030D00042EC58E260E081E87BDB91E08927809355
:1030E000DA28CFBF8091DA288927CF911F910F91DD
:1030F0000895089580E0089580E008951092F928D9
:103100001092F8281092EA288CE0EBEEF8E2DF014A
:103110001D928A95E9F71092F72881E008952CE72F
:1031200038E141EF50E268EF78E289EF98E2C3C1FD
:1031300008950F931F938091EA28811117C08CE0A6
:10314000EBEEF8E2AEEDB8E201900D928A95E1F770
:103150001092F7280AEB18E12CE030E04EED58E22F
:1031600060E086E835DB8093EA2801C080E01F91AB
:103170000F9108951092EA288091F7288111D9CFF4
:103180000895CF93FC01CFB7F8949CE0ABEEB8E282
:1031900001900D929A95E1F781E08093F728C9DFBD
:1031A000CFBF81E0CF910895089580E008953091D8
:1031B0003B2A20913C2A822F90E00297B9F43111EA
:1031C00017C080913F2A9091402A019799F4E9E332
:1031D000FAE28CE099E2808791878CEF98E184870E
:1031E000958781E090E082879387089580E0089535
:1031F00080E0089580E00895089510920E291092BD
:103200000D291092022988E0E3E0F9E2DF011D9226
:103210008A95E9F710920B2981E0089527ED38E1AE
:1032200045E451E26DE079E28EE099E244C108950F
:103230000F931F9380910229811117C088E0E3E06A
:10324000F9E2AAEFB8E201900D928A95E1F71092A7
:103250000B2909E319E128E030E04AEF58E260E089
:1032600085E8B6DA8093022901C080E01F910F91B2
:1032700008951092022980910B298111D9CF0895C8
:10328000CF93CFB7F894E3E0F9E28095908189235A
:10329000808381E080930B29CBDFCFBF81E0CF918A
:1032A0000895CF93CFB7F894E3E0F9E29081892BAA
:1032B000808381E080930B29BBDFCFBF81E0CF917A
:1032C0000895CF93CFB7F89490910529992341F0B1
:1032D0008917A9F0E6E0F9E293E02191211102C0FB
:1032E000CFBF1EC0281721F09F5F9830B1F705C0EF
:1032F000983019F0973020F00CC0CFBF11C092E089
:10330000E92FF0E0ED5FF64D818180839F5F97307C
:10331000B9F710920A2981E080930B2989DFCFBF8A
:1033200081E0CF910895CF93CFB7F894909105297C
:103330009923B1F0891741F0A6E0B9E2E3E09D914D
:10334000992349F0981303C0CFBF81E014C0EF5F09
:10335000E830A9F702C0E83021F4CFBF80E00BC00D
:10336000E2E0F0E0ED5FF64D808381E080930B2991
:103370005FDFCFBF81E0CF910895089580E0089589
:1033800080E0089510921B2910921A291092142996
:1033900084E0E5E1F9E2DF011D928A95E9F71092F8
:1033A000192981E0089520EC39E14AE851E26AE107
:1033B00079E28BE199E27FC008950F931F9380918A
:1033C0001429811125C08091152990911629A09169
:1033D0001729B09118298093102990931129A0934F
:1033E0001229B093132983E0E6E1F9E2DF011D928F
:1033F0008A95E9F71092192902E41AE124E030E0F5
:1034000040E159E260E084E8E3D98093142901C0E7
:1034100080E01F910F910895CF93CFB7F89470E09B
:10342000FB01EB5EF64D2081082E000C990B820FFC
:10343000911D27FD9A959C0121583F4F2F3F310543
:1034400018F0CFBF80E00AC0FB01EB5EF64D808331
:1034500081E080931929B1DFCFBF81E0CF9108953A
:10346000882331F0E5E1F9E28081682B608306C0B2
:10347000E5E1F9E2609580816823608361E080E0A6
:10348000CBCF08951092142980911929811195CFDD
:10349000089563E0C1CF089562E0BECF089561E072
:1034A000BBCF089564E0DCCF089562E0D9CF0895E2
:1034B00061E0D6CF0895CF93DF93DC01EA019091CC
:1034C000392A99230CF063C0907609F045C08091A9
:1034D0003A2A863009F040C072D1DC011A962C914C
:1034E0001A97213209F072C020913C2A30E0213233
:1034F0003105B1F49C01275F3F4F2093412A30935F
:10350000422AE9E3FAE219968C912681378190E00C
:103510002817390708F4C9018287938781E063C0BF
:10352000FC01478550E04217530709F051C0C09392
:10353000412AD093422AE9E3FAE226813781DC016D
:1035400050968D919C9151972817390708F4C9011D
:103550008287938781E047C09032E1F580913A2AD3
:10356000823019F0833051F037C0E9E3FAE2A087E6
:10357000B18781E090E08287938735C0E9E3FAE282
:103580006087718781E090E0828793872CC0907676
:10359000903221F580913A2A8A3039F08B3051F0FF
:1035A0008930F1F4F90119951EC080913C2A8C9361
:1035B00081E019C080913F2A9091402A892B91F493
:1035C00080913B2ADB018C9381E00DC080E00BC031
:1035D00080E009C080E007C080E005C080E003C053
:1035E00080E001C080E0DF91CF910895E091212932
:1035F000F09122290190F081E02D228133812E0F5C
:103600003F1FFC014081E40FF11DE217F307A0F416
:1036100081818430A1F0861306C014C0818184307A
:10362000A1F08617A9F08081E80FF11DE217F307DA
:10363000A8F380E090E0089580E090E0089580E0B5
:1036400090E008958E2F9F2F089580E090E00895D8
:103650008E2F9F2F089580913B2A8F770C940D1306
:10366000089590912329992381F1E0912129F091E6
:1036700022290190F081E02D9481891740F5E09393
:103680001F29F0932029228133812E0F3F1FE2173B
:10369000F307F8F49181943061F49281891309C0A1
:1036A0009381961306C0E0931F29F093202981E0AF
:1036B00008959081E90FF11DE217F30758F3E093A5
:1036C0001F29F093202980E0089580E0089580E08C
:1036D000089580E00895EF92FF921F93CF93DF93B8
:1036E000C82F60E0BEDF182F882379F1A09121292F
:1036F000B0912229EC2FF0E0EE0FFF1F12968D9172
:103700009C911397E80FF91FE080F180D70116967E
:10371000ED91FC9117971995682F8C2FA2DF182F28
:10372000882399F0C0911F29D091202965E0CE010E
:103730005DDFEC01892B19F08A8158D9F7CFD701C9
:103740001296ED91FC9113971995812FDF91CF91EE
:103750001F91FF90EF9008951F93CF93DF93182F41
:1037600080DF882341F1C0911F29D091202965E095
:10377000CE013CDFEC01892B49F04C815D816B81EE
:103780008A810E941A138111F2CF15C0A0912129BC
:10379000B0912229E12FF0E0EE0FFF1F12968D91DC
:1037A0009C911397E80FF91F0190F081E02D019093
:1037B000F081E02D1995DF91CF911F9108958091AF
:1037C0001F299091202908950C945B120895CF939E
:1037D000809123298823C1F0E0912129F0912229A9
:1037E0000190F081E02D8481882371F0C0E08C2F5E
:1037F00072DFCF5FE0912129F09122290190F081C1
:10380000E02D8481C81798F310922329109224295F
:1038100010922529CF9108950E94D112D8CF0895F2
:10382000CF9380912329882349F1A0912129B09138
:103830002229ED91FC91119784818823F9F0C0E051
:10384000EC2FF0E0EE0FFF1F12968D919C911397D5
:10385000E80FF91F0190F081E02D0084F185E02D43
:10386000309709F01995CF5FA0912129B0912229B5
:10387000ED91FC9111978481C81710F3CF910895B1
:103880000F931F93CF93DF93E9E3FAE21286138637
:103890001486158616861786808188230CF03DC213
:1038A00020913F2A3091402A2115310509F03AC272
:1038B00018C28F7109F097C090913A2A963081F022
:1038C000983009F485C091118EC02230310509F07D
:1038D0000AC262E070E084E299E20E9413132BC2F4
:1038E00080913B2A90913C2A292F332722303105A1
:1038F00089F02330310579F12130310509F0A6C175
:103900008091002090910120DC016C9170E00E9478
:1039100013134FC0E0910020F091012021898217FC
:1039200008F0E3C19927880F991F880F991FE0912C
:103930000220F0910320E80FF91F80819181FC01A2
:10394000628173810E941313E091412AF091422A0F
:1039500082E081832EC099278130910599F058F03B
:103960008230910509F4E3C1039709F078C136E08C
:10397000EBEBF5E20AC064E070E08CE092E20E94BA
:10398000131317C0EEEFF1E23DE0AAECB1E220E044
:10399000819190E08D939D932F5F2317C8F3632F40
:1039A000660F6E5F6093C82170E088EC91E20E9420
:1039B0001313E9E3FAE28681978122853385821722
:1039C000930708F0B8C18093432A9093442AB3C167
:1039D0002130310509F08BC161E070E083E299E2AA
:1039E0000E941313A8C18130E9F590913A2A9A30C8
:1039F000C9F52130310509F038C180912329882388
:103A000009F433C1C0913D2AD0913E2A0091212969
:103A100010912229D801ED91FC918481C81708F0FA
:103A200024C160E08C2F1DDE882309F418C1CE016B
:103A30009927880F991FD8011296ED91FC91139741
:103A4000E80FF91F0190F081E02D86819781FC013C
:103A5000199580931E2961E070E08EE199E20E9441
:103A6000131369C1823009F0FAC080913A2A81119A
:103A7000EFC02230310509F03CC180913D2A0E94FF
:103A8000981390E080931C2990931D2962E070E0C8
:103A90008CE199E20E9413134EC18F7109F084C02A
:103AA00090913A2A933009F4D5C018F49130A1F0DE
:103AB0007BC0953019F0993039F176C080913F2A5A
:103AC0009091402A892B09F016C18BE29BE18093EB
:103AD000452A9093462A2FC180913F2A9091402AEF
:103AE000892B09F00AC180913B2A90913C2A0197C9
:103AF00009F005C180912429909125298D7F80931B
:103B000024299093252917C180913F2A9091402A1A
:103B1000892B09F0F6C00E941013882309F49FC076
:103B200020913B2A30913C2A3327E0910020F091EC
:103B30000120818990E08217930708F490C047DE46
:103B400080913B2A90913C2A80932329882309F471
:103B5000F2C099278150904C880F991F880F991FA8
:103B6000E0910220F0910320E80FF91FE093212952
:103B7000F09322290190F081E02D8481882309F4BB
:103B8000DAC0C0E060E08C2FE7DD882309F467C06D
:103B9000CF5FE0912129F09122290190F081E02D61
:103BA0008481C81778F3C7C08130E9F490913A2A2C
:103BB0009B30C9F480913F2A9091402A892B09F0CB
:103BC00054C080912329882309F44FC0E9E3FAE225
:103BD000C481D2818C2F7FDD882309F440C06D2FF2
:103BE0008C2FBADD3AC08230D1F580913A2A8130EB
:103BF00019F08330A1F030C080913F2A9091402A83
:103C0000892B09F080C080913B2A90913C2A892B16
:103C100009F07BC080913D2A0E94B3131EC08091A1
:103C20003F2A9091402A892B09F071C080913B2A4C
:103C300090913C2A892B09F06CC0C9E3DAE28C81AF
:103C40000E94A6148C810E94121507C080E005C056
:103C500080E003C080E001C080E081116DC08091F0
:103C6000392A8F71813009F056C080912329882329
:103C7000A1F1C0913D2AD0913E2A009121291091B5
:103C80002229D801ED91FC918481C81740F560E0AC
:103C90008C2FE7DC882309F44FC0FE01FF27CF01FA
:103CA000880F991FD8011296ED91FC911397E80F98
:103CB000F91F00811181D8011696ED91FC9117979B
:103CC0001995682F8C2FCDDC8823B1F1D80114967B
:103CD000ED91FC91159719952FC080E02DC080E0E3
:103CE0002BC080E029C080E027C080E025C080E0B4
:103CF00023C080E021C080E01FC080E01DC080E0C4
:103D00001BC080E019C080E017C080E015C080E0D3
:103D100013C080E011C080E00FC0982F907609F0AA
:103D20009ECFBBCE982F907609F099CFC2CD31E1CE
:103D3000ECEEF1E22ACE81E0DF91CF911F910F915D
:103D4000089540E06AE28DE1DAD040E06EE08DE176
:103D5000D6D04BE06AE28DE1D2C00895CF93DF93D5
:103D60001F92CDB7DEB79FEF9983813039F4AE0152
:103D70004F5F5F4F61E08DE15ED011C0823039F45A
:103D8000AE014F5F5F4F63E08DE155D008C08330D7
:103D900031F4AE014F5F5F4F65E08DE14CD089811A
:103DA0000F90DF91CF9108950F931F93CF93DF93DF
:103DB0001F92CDB7DEB78C011982AE014F5F5F4F06
:103DC00060E08DE138D0898182FF06C023E030E0D9
:103DD000A80161E08DE165D00F90DF91CF911F9137
:103DE0000F910895CF93DF93CDB7DEB72997CDBF5D
:103DF000DEBF89E0E2EBF5E2DE01119601900D9263
:103E00008A95E1F784E08093260660E483E090E001
:103E100061D8BE016F5F7F4F80E894E00E94BD0EC5
:103E2000E0E8F4E08181886081832996CDBFDEBF20
:103E3000DF91CF9108950F931F93CF93DF93CDB769
:103E4000DEB72C97CDBFDEBF8A011982FE01329604
:103E50009BE0DF011D929A95E9F78A836B8381E0ED
:103E600090E08E839F839E012F5F3F4F2887398785
:103E70008A879B878C8741E0BF0180E894E00E949D
:103E8000D40E009721F42981F801208302C08FEF1E
:103E90009FEF2C96CDBFDEBFDF91CF911F910F9189
:103EA0000895CF93DF93CDB7DEB72B97CDBFDEBF9D
:103EB000FE0131969BE0DF011D929A95E9F7898317
:103EC0006A8381E090E08D839E834F8358872987A2
:103ED0003A8741E0BF0180E894E00E94D40E21E0DF
:103EE00030E0892B11F420E030E088279927821BED
:103EF000930B2B96CDBFDEBFDF91CF910895CF936B
:103F0000DF93CDB7DEB72C97CDBFDEBF4983FE016F
:103F100032969BE0DF011D929A95E9F78A836B83C5
:103F200081E090E08E839F839E012F5F3F4F288723
:103F300039878A879B878C8740E0BE016E5F7F4F01
:103F400080E894E00E94D40E892BB1F72C96CDBF67
:103F5000DEBFDF91CF910895CF93DF93CDB7DEB76A
:103F60002B97CDBFDEBFFE0131969BE0DF011D9296
:103F70009A95E9F789836A8381E090E08D839E8337
:103F80004F83588729873A878B8740E0BE016F5F50
:103F90007F4F80E894E00E94D40E892BB1F780E037
:103FA00090E02B96CDBFDEBFDF91CF9108950895AD
:103FB00080E0089580E008951092412910924029F0
:103FC000109232298CE0E3E3F9E2DF011D928A9539
:103FD000E9F710923F2981E008952AED3FE140E1A1
:103FE00052E260E479E281E499E265CA08950F93B0
:103FF0001F9380913229811118C08CE0E3E3F9E22C
:10400000A6E2B9E201900D928A95E1F710923F295C
:1040100009E110E22CE030E046E259E260E083E89A
:104020000E94E8138093322901C080E01F910F9114
:1040300008951092322980913F298111D8CF089597
:10404000CF93FC01CFB7F8949CE0A3E3B9E20190D1
:104050000D929A95E1F781E080933F29C8DFCFBFA9
:1040600081E0CF91089588ED84BF81E08093960030
:1040700041E050E061E080EE97E00E94C21741E02D
:1040800050E062E080EE97E00E94C21741E050E00D
:1040900064E080E296E00E94C21740E05BE160E2EB
:1040A00080E096E00E94C21740E05BE160E180E0C2
:1040B00096E00E94C21740E05BE160E880E096E095
:1040C0000E94C21740E05BE160E480E096E00E945D
:1040D000C21740E05BE164E080E096E00E94C21716
:1040E00040E05BE168E080E096E00E94C21740E0BB
:1040F0005BE161E080E096E00E94C21740E05BE196
:1041000062E080E096E00E94C21740E05BE164E07C
:1041100080E696E00E94C21740E05BE168E080E63E
:1041200096E00E94C21740E05BE161E080E696E025
:104130000E94C21740E05BE162E080E696E00E94E8
:10414000C21740E05BE161E080E896E00E94C217A0
:1041500040E05BE162E080E896E00E94C21740E048
:104160005BE160E180E696E00E94C21740E05BE11F
:1041700060E280E696E00E94C21740E05BE161E009
:1041800080E296E00E94C21740E05BE162E080E2DC
:1041900096E00E94C21740E05BE168E080E296E0B2
:1041A0000E94C21740E05BE160E180E296E00E947D
:1041B000C21740E05BE160E280E296E00E94C21735
:1041C00040E05BE160E480E296E00E94C21740E0DC
:1041D0005BE160E880E296E00E94C21740E05BE1AC
:1041E00064E080E496E00E94C21740E05BE168E092
:1041F00080E496E00E94C21740E05BE160E180E469
:1042000096E00E94C21740E05BE160E280E496E045
:104210000E94C21740E05BE160E480E496E00E9407
:10422000C21740E05BE160E880E496E00E94C217BC
:1042300040E05BE160E880EA96E00E94C21740E05F
:104240005BE160E480EA96E00E94C21740E05BE137
:1042500060E280EA96E00E94C21740E05BE160E124
:1042600080EA96E00E94C21740E05BE168E080EAE5
:1042700096E00E94C21740E05BE164E080EA96E0CD
:104280000E94C21740E05BE162E080EA96E00E9493
:10429000C21740E05BE161E080EA96E00E94C2174D
:1042A00040E05BE160E880E896E00E94C21740E0F1
:1042B0005BE160E480E896E00E94C21740E05BE1C9
:1042C00060E180E896E00E94C21740E05BE168E0B0
:1042D00080E896E00E94C21740E05BE164E080E87D
:1042E00096E00C94C217089541E060E080E007DE9C
:1042F00041E060E081E003DE41E060E082E0FFDD7C
:1043000041E060E087E0FBDD41E060E084E0F7DD74
:1043100041E060E085E0F3DD41E061E080E0EFDD79
:1043200041E061E081E0EBDD41E061E082E0E7DD7A
:1043300041E061E087E0E3DD41E061E084E0DFDD72
:1043400041E061E085E0DBDD4FEF64E180E0D7DD57
:104350004FEF65E180E0D3DD4FEF66E180E0CFDD38
:104360004FEF67E180E0CBDD4FEF64E181E0C7DD37
:104370004FEF65E181E0C3DD4FEF66E181E0BFDD36
:104380004FEF67E181E0BBDD4FEF64E182E0B7DD35
:104390004FEF65E182E0B3DD4FEF66E182E0AFDD34
:1043A0004FEF67E182E0ABDD4FEF64E187E0A7DD2F
:1043B0004FEF65E187E0A3DD4FEF66E187E09FDD2A
:1043C0004FEF67E187E09BDD4FEF64E184E097DD2D
:1043D0004FEF65E184E093DD4FEF66E184E08FDD30
:1043E0004FEF67E184E08BDD4FEF64E185E087DD2F
:1043F0004FEF65E185E083DD4FEF66E185E07FDD2E
:104400004FEF67E185E07BDD4FEF62E180E077DD34
:104410004FEF62E181E073DD4FEF62E182E06FDD3B
:104420004FEF62E187E06BDD4FEF62E184E067DD33
:104430004FEF62E185E063CD0895462F682F892F05
:104440005ECD0895AB018330910581F030F4813069
:104450009105B1F0029741F011C08530910551F0FE
:1044600038F0069749F00AC081E00BC082E009C02D
:1044700087E007C084E005C085E003C08FEF01C07E
:1044800080E020E130E062EA67CD08950F931F934A
:10449000CF93DF931F92CDB7DEB78B011982AE01A8
:1044A0004F5F5F4F682F892FC6DC8981F8018083B9
:1044B0000F90DF91CF911F910F910895CF93C82F47
:1044C000482F62E180E01BDD4C2F62E181E017DDC7
:1044D0004C2F62E182E013DD4C2F62E187E00FDDBB
:1044E0004C2F62E184E00BDD4C2F62E185E007DDBB
:1044F000CF9108956230A1F018F4613031F0089541
:104500006430C9F0683011F10895529542954F70AA
:1045100045275F70452740936E2950936F29089572
:10452000529542954F7045275F70452740936C29FF
:1045300050936D290895529542954F7045275F70AD
:10454000452740936A2950936B29089552954295C7
:104550004F7045275F70452740936829509369291C
:1045600008952F923F924F925F926F927F928F9217
:104570009F92AF92BF92CF92DF92EF92FF920F93F2
:104580001F93CF93DF93CDB7DEB72897CDBFDEBFA4
:10459000802E912E622E732EB42FA52F6F837887D5
:1045A000282F30E02D833E83C9018053964DFC01B6
:1045B0008081833009F05BC02090152A3090162A44
:1045C0004090172A5090182AE091192AF0911A2A3F
:1045D00020911B2A2B8330911C2A3C83A22CA022E1
:1045E000B32CB122C42CC620D52CD720EE2EE42229
:1045F000FF2EF522022F0623132F1723282D392DE6
:10460000462D572D6B2F7A2F8F8198850E9431442C
:1046100009F092C082248092152A93249092162A3F
:10462000842D86258093172A852D87258093182A27
:10463000BE27B093192AAF27A0931A2AFF81EB81D6
:10464000FE27F0931B2AE92FFC81EF27E0931C2A19
:10465000ED81FE81EA58F64D80810E944019ED817E
:10466000FE81ED55F64D80810E94611965C0843050
:1046700009F062C02090152A3090162A4090172A1F
:104680005090182AE091192AF0911A2A20911B2A99
:104690002B8330911C2A3C83A02EA220B12EB32064
:1046A000C62CC420D72CD520EE2EE422FF2EF522D6
:1046B000022F8F810823132F28851223282D392DAF
:1046C000462D572D6B2F7A2F98850E943144A1F5E6
:1046D00082248092152A93249092162A862D84256E
:1046E0008093172A872D85258093182ABE27B0939B
:1046F000192AAF27A0931A2AFF81EB81FE27F09396
:104700001B2AE92FFC81EF27E0931C2AED81FE8113
:10471000ED55F64D8081813021F480E00E94581AD9
:104720000BC0823021F480E00E94551A05C083300E
:1047300019F480E00E94521A2896CDBFDEBFDF91A7
:10474000CF911F910F91FF90EF90DF90CF90BF908E
:10475000AF909F908F907F906F905F904F903F9021
:104760002F9008952F923F924F925F926F927F9277
:104770008F929F92AF92BF92CF92DF92EF92FF9271
:104780000F931F93CF93DF93CDB7DEB72897CDBF9D
:10479000DEBF802E912E622E732EB42FA52F6F8335
:1047A0007887282F30E02D833E83C9018053964DB2
:1047B000FC018081833009F05BC02090152A309085
:1047C000162A4090172A5090182AE091192AF09141
:1047D0001A2A20911B2A2B8330911C2A3C83A22C5D
:1047E000A022B32CB122C42CC620D52CD720EE2E6B
:1047F000E422FF2EF522022F0623132F1723282D44
:10480000392D462D572D6B2F7A2F8F8198850E9439
:10481000314409F092C082248092152A9324909208
:10482000162A842D86258093172A852D8725809327
:10483000182ABE27B093192AAF27A0931A2AFF81FE
:10484000EB81FE27F0931B2AE92FFC81EF27E093F1
:104850001C2AED81FE81EA58F64D80810E944019A4
:10486000ED81FE81ED55F64D80810E94611965C094
:10487000843009F062C02090152A3090162A4090AA
:10488000172A5090182AE091192AF0911A2A20919B
:104890001B2A2B8330911C2A3C83A02EA220B12EF0
:1048A000B320C62CC420D72CD520EE2EE422FF2E18
:1048B000F522022F8F810823132F28851223282DFC
:1048C000392D462D572D6B2F7A2F98850E94314414
:1048D000A1F582248092152A93249092162A862D7F
:1048E00084258093172A872D85258093182ABE2733
:1048F000B093192AAF27A0931A2AFF81EB81FE27D4
:10490000F0931B2AE92FFC81EF27E0931C2AED810D
:10491000FE81ED55F64D8081813021F480E00E94CA
:10492000581A0BC0823021F480E00E94551A05C04D
:10493000833019F480E00E94521A2896CDBFDEBF62
:10494000DF91CF911F910F91FF90EF90DF90CF906B
:10495000BF90AF909F908F907F906F905F904F909F
:104960003F902F90089590E0FC013197E032F105DF
:1049700008F066C08827E45FFE4F8F4F0C94914388
:1049800081E0E8E05FC082E0E8E05CC084E0E8E06D
:1049900059C088E0E8E056C080E1E8E053C080E21A
:1049A000E8E050C080E4E8E04DC080E8E8E04AC0BC
:1049B00081E0E9E047C082E0E9E044C084E0E9E06A
:1049C00041C088E0E9E03EC080E1E9E03BC080E230
:1049D000E9E038C080E4E9E035C080E8E9E032C0D1
:1049E00081E0EAE02FC082E0EAE02CC084E0EAE067
:1049F00029C088E0EAE026C080E1EAE023C080E246
:104A0000EAE020C080E4EAE01DC080E8EAE01AC0E5
:104A100081E0EBE017C082E0EBE014C084E0EBE063
:104A200011C088E0EBE00EC080E1EBE00BC080E25B
:104A3000EBE008C080E4EBE005C080E8EBE002C0FA
:104A400080E0E0E0613039F4F0E0E75FF54D90811F
:104A5000892B80830895623031F4F0E0E350F64D05
:104A60009081892B808308952F923F924F925F927D
:104A70006F927F928F929F92AF92BF92CF92DF926E
:104A8000EF92FF920F931F93CF93DF9300D000D04C
:104A9000CDB7DEB7A82FB0E0AD83BE83FD01E053F4
:104AA000F64D808184FF09C0E82FF0E0E750F64D15
:104AB000AD55B64D8C918083EFC086FF0CC0E82FBA
:104AC000F0E0E354F64D8D819E818D55964DDC01CD
:104AD0008C918083E1C0E72FF62FA52FB42F932E62
:104AE000822E712E602E813041F4ED81FE81ED55D4
:104AF000F64D61E0808137DFCFC0823059F48D817F
:104B00009E818D55964D8D839E8362E0DC018C9154
:104B10002ADFC2C0843009F063C02090152A30908B
:104B2000162A4090172A5090182A8091192A8983B2
:104B300090911A2A9A8380911B2A8B8390911C2A28
:104B40009C83A22CA022B32CB122C42CC222D52C2F
:104B5000D322E980E422FA80F522082F0623192FB8
:104B60001723262D372D482D592D6B2F7A2F8F2F58
:104B70009E2F0E94314409F48FC062286092152A4A
:104B800073287092162A84288092172A952890926A
:104B9000182A8981B82BB093192ABA81AB2BA0931C
:104BA0001A2AAB81FA2BF0931B2ABC81EB2BE093E2
:104BB0001C2AED81FE81ED55F64D8081813019F47E
:104BC0000E94581A69C0823021F481E00E94551A6F
:104BD00063C0833009F060C081E00E94521A5CC05B
:104BE000833009F059C02090152A3090162A409041
:104BF000172A5090182A8091192A898390911A2A8D
:104C00009A8380911B2A8B8390911C2A9C83A02ECF
:104C1000A220B12EB320C22EC420D32ED520E980ED
:104C2000E422FA80F522082F0623192F1723262DB8
:104C3000372D482D592D6B2F7A2F8F2F9E2F0E94A5
:104C4000314451F162286092152A73287092162A15
:104C500084288092172A95289092182A8981B82B47
:104C6000B093192ABA81AB2BA0931A2AAB81FA2BE5
:104C7000F0931B2ABC81EB2BE0931C2AED81FE8173
:104C8000EA58F64D80810E945119ED81FE81ED5563
:104C9000F64D80810E9493192696CDBFDEBFDF912D
:104CA000CF911F910F91FF90EF90DF90CF90BF9029
:104CB000AF909F908F907F906F905F904F903F90BC
:104CC0002F9008952F923F924F925F926F927F9212
:104CD0008F929F92AF92BF92CF92DF92EF92FF920C
:104CE0000F931F93CF93DF93CDB7DEB72897CDBF38
:104CF000DEBF602E712E822E932EB42FA52F6F83D0
:104D00007887282F30E02D833E83C9018053964D4C
:104D1000FC018081813039F42D55364D61E0F90177
:104D2000808121DECAC0823049F42D813E812D551B
:104D3000364D62E0F901808116DEBFC0833009F094
:104D40005AC02090152A3090162A4090172A509069
:104D5000182AE091192AF0911A2A20911B2A2B83F4
:104D600030911C2A3C83A22CA022B32CB122C42C4B
:104D7000C820D52CD920EE2EE422FF2EF522022FBA
:104D80008F810823132F98851923262D372D482D21
:104D9000592D6B2F7A2F0E94314409F48EC062285E
:104DA0006092152A73287092162A84288092172AF6
:104DB00095289092182ABE2BB093192AAF2BA09356
:104DC0001A2AF82FEB81FE2BF0931B2AE92FFC8186
:104DD000EF2BE0931C2AED81FE81EA58F64D80818D
:104DE0000E9451192D813E812D55364DF90180814A
:104DF0000E94931962C0843009F05FC02090152A88
:104E00003090162A4090172A5090182AE091192ABB
:104E1000F0911A2A20911B2A2B8330911C2A3C8363
:104E2000A02EA220B12EB320C82CC420D92CD5206E
:104E3000EE2EE422FF2EF522022F8F810823132F5E
:104E400098851923262D372D482D592D6B2F7A2F14
:104E50000E94314491F162286092152A7328709261
:104E6000162A84288092172A95289092182ABE2BF9
:104E7000B093192AAF2BA0931A2AF82FEB81FE2B9F
:104E8000F0931B2AE92FFC81EF2BE0931C2A2D8144
:104E90003E812D55364DF9018081813019F40E94F3
:104EA000581A0BC0823021F481E00E94551A05C0C7
:104EB000833019F481E00E94521A2896CDBFDEBFDC
:104EC000DF91CF911F910F91FF90EF90DF90CF90E6
:104ED000BF90AF909F908F907F906F905F904F901A
:104EE0003F902F9008950F931F93CF93DF93E9E0A6
:104EF000FAE2ADEFB9E285E19AE211921D92E8176C
:104F0000F907D9F78091E80780FD03C081E080931D
:104F1000E50780914D2990914E298A3F910539F4FA
:104F200010924D2910924E2982E08093E7078091DC
:104F30004D2990914E29019680934D2990934E29A9
:104F4000E091D029E5FF08C0F0E0E751F64D8091EF
:104F50006E298058808323C0EE2344F4F0E0E358A8
:104F6000F64D80916E298058808319C08091080683
:104F700085FD0BC001E010E020E030E040E050E0B3
:104F800060E070E080E070DD0AC001E010E020E049
:104F900030E040E050E060E070E080E0E2DAE09194
:104FA000D129E5FF08C0F0E0E751F64D80916C296A
:104FB0008058808323C0EE2344F4F0E0E358F64D9C
:104FC00080916C298058808319C08091080684FDE7
:104FD0000BC002E010E020E030E040E050E060E094
:104FE00070E081E041DD0AC002E010E020E030E046
:104FF00040E050E060E070E081E0B3DAE091D22977
:10500000E5FF08C0F0E0E751F64D80916A2980582D
:10501000808323C0EE2344F4F0E0E358F64D809102
:105020006A298058808319C08091080688235CF023
:1050300004E010E020E030E040E050E060E070E0AC
:1050400082E012DD0AC004E010E020E030E040E041
:1050500050E060E070E082E084DAE091D329E5FF7F
:1050600008C0F0E0E751F64D8091682980588083B0
:1050700023C0EE2344F4F0E0E358F64D8091682914
:105080008058808319C08091080686FD0BC008E017
:1050900010E020E030E040E050E060E070E083E0CD
:1050A000E3DC0AC008E010E020E030E040E050E03F
:1050B00060E070E083E055DA8091080682FD0BC065
:1050C00000E110E020E030E040E050E060E070E01F
:1050D00084E0CADC0AC000E110E020E030E040E0FB
:1050E00050E060E070E084E03CDA8091080683FDE7
:1050F0000BC000E210E020E030E040E050E060E073
:1051000070E085E0B1DC0AC000E210E020E030E0B1
:1051100040E050E060E070E085E023DA809108062E
:1051200080FD0BC000E410E020E030E040E050E003
:1051300060E070E086E098DC0AC000E410E020E067
:1051400030E040E050E060E070E086E00ADA809114
:10515000080681FD0BC000E810E020E030E040E0F0
:1051600050E060E070E087E07FDC0AC000E810E01B
:1051700020E030E040E050E060E070E087E0F1D90E
:105180008091D82985508330D8F58DE69AE20E9427
:10519000C406182F8DE69AE20E94BC06EC018DE64B
:1051A0009AE20E94CD062091742930917529C21788
:1051B000D30709F457C0C0937429D0937529282FB9
:1051C000392F2115310511F421E030E0112319F0B8
:1051D0003195219531098091D829863049F0873061
:1051E00059F0853009F03EC0822F0E944F1A3AC014
:1051F000822F0E944C1A36C0822F0E94491A32C058
:105200008091680682FF0BC000E011E020E030E0F2
:1052100040E050E060E070E088E026DC0AC000E09A
:1052200011E020E030E040E050E060E070E088E035
:1052300098D98091680683FF0BC000E012E020E05F
:1052400030E040E050E060E070E089E00DDC0AC052
:1052500000E012E020E030E040E050E060E070E08C
:1052600089E07FD98091DA2985508330D8F58FE4A1
:105270009AE20E94C406182F8FE49AE20E94BC06AC
:10528000EC018FE49AE20E94CD06209172293091C0
:105290007329C217D30709F457C0C0937229D0935A
:1052A0007329282F392F2115310511F421E030E021
:1052B000112319F03195219531098091DA29863031
:1052C00049F0873059F0853009F03EC0822F0E94A6
:1052D0004F1A3AC0822F0E944C1A36C0822F0E9469
:1052E000491A32C08091680680FF0BC000E014E0CC
:1052F00020E030E040E050E060E070E08AE0B4DBC5
:105300000AC000E014E020E030E040E050E060E05F
:1053100070E08AE026D98091680681FF0BC000E02A
:1053200018E020E030E040E050E060E070E08BE02A
:105330009BDB0AC000E018E020E030E040E050E0F5
:1053400060E070E08BE00DD98091DE29853008F4B3
:105350003FC08091DF298830D8F58BE89AE20E941F
:10536000C406182F8BE89AE20E94BC06EC018BE879
:105370009AE20E94CD062091702930917129C217BE
:10538000D30709F457C0C0937029D0937129282FEF
:10539000392F2115310511F421E030E0112319F0E6
:1053A0003195219531098091DE29863049F0873089
:1053B00059F0853009F03EC0822F0E944F1A3AC042
:1053C000822F0E944C1A36C0822F0E94491A32C086
:1053D0008091680684FF0BC000E010E420E030E01C
:1053E00040E050E060E070E08EE03EDB0AC000E0AC
:1053F00010E420E030E040E050E060E070E08EE05B
:10540000B0D88091680685FF0BC000E010E820E06E
:1054100030E040E050E060E070E08FE025DB0AC063
:1054200000E010E820E030E040E050E060E070E0B4
:105430008FE097D88091880680FD0BC000E010E1D6
:1054400020E030E040E050E060E070E08CE00CDB19
:105450000AC000E010E120E030E040E050E060E011
:1054600070E08CE07ED88091880681FD0BC000E062
:1054700010E220E030E040E050E060E070E08DE0DD
:10548000F3DA0AC000E010E220E030E040E050E053
:1054900060E070E08DE065D88091280680FD0BC04B
:1054A00000E010E021E030E040E050E060E070E03B
:1054B00080E108DC0AC000E010E021E030E040E0DC
:1054C00050E060E070E080E14DD98091280681FDD8
:1054D0000BC000E010E022E030E040E050E060E08F
:1054E00070E081E1EFDB0AC000E010E022E030E094
:1054F00040E050E060E070E081E134D9809128061E
:1055000083FD0BC000E010E024E030E040E050E01C
:1055100060E070E082E1D6DB0AC000E010E024E049
:1055200030E040E050E060E070E082E11BD9809123
:10553000280684FD0BC000E010E028E030E040E0E9
:1055400050E060E070E083E1BDDB0AC000E010E005
:1055500028E030E040E050E060E070E083E102D914
:105560008091280685FD0BC000E010E020E130E0CE
:1055700040E050E060E070E084E1A4DB0AC000E0BD
:1055800010E020E130E040E050E060E070E084E1D5
:10559000E9D88091280686FD0BC000E010E020E2EB
:1055A00030E040E050E060E070E085E18BDB0AC075
:1055B00000E010E020E230E040E050E060E070E029
:1055C00085E1D0D88091280688235CF000E010E0C7
:1055D00020E430E040E050E060E070E086E172DB23
:1055E0000AC000E010E020E430E040E050E060E07D
:1055F00070E086E1B7D88091480682FD0BC000E0DC
:1056000010E020E830E040E050E060E070E087E14A
:1056100059DB0AC000E010E020E830E040E050E054
:1056200060E070E087E19ED88091480683FD0BC062
:1056300000E010E020E031E040E050E060E070E0A9
:1056400088E140DB0AC000E010E020E031E040E00B
:1056500050E060E070E088E185D88091480684FDE4
:105660000BC000E010E020E032E040E050E060E0FD
:1056700070E089E127DB0AC000E010E020E032E0C2
:1056800040E050E060E070E089E16CD8809148062D
:1056900085FD0BC000E010E020E034E040E050E089
:1056A00060E070E08AE10EDB0AC000E010E020E07C
:1056B00034E040E050E060E070E08AE153D880914F
:1056C000480686FD0BC000E010E020E038E040E036
:1056D00050E060E070E08BE1F5DA0AC000E010E035
:1056E00020E038E040E050E060E070E08BE13AD844
:1056F0008091480688235CF000E010E020E030E173
:1057000040E050E060E070E08CE1DCDA0AC000E0EC
:1057100010E020E030E140E050E060E070E08CE13B
:1057200021D88091A80688235CF000E010E020E0FA
:1057300030E240E050E060E070E08DE1C3DA0AC0A2
:1057400000E010E020E030E240E050E060E070E097
:105750008DE108D88091A80686FD0BC000E010E01E
:1057600020E030E440E050E060E070E08EE1AADA52
:105770000BC000E010E020E030E440E050E060E0EA
:1057800070E08EE10E94B2238091A80685FD0BC0D7
:1057900000E010E020E030E840E050E060E070E041
:1057A0008FE190DA0BC000E010E020E030E840E04C
:1057B00050E060E070E08FE10E94B2238091A80683
:1057C00084FD0BC000E010E020E030E041E050E05C
:1057D00060E070E080E276DA0BC000E010E020E0EC
:1057E00030E041E050E060E070E080E20E94B223EF
:1057F0008091A80683FD0BC000E010E020E030E0BF
:1058000042E050E060E070E081E25CDA0BC000E072
:1058100010E020E030E042E050E060E070E081E243
:105820000E94B2238091A80682FD0BC000E010E028
:1058300020E030E044E050E060E070E082E242DAF4
:105840000BC000E010E020E030E044E050E060E019
:1058500070E082E20E94B2238091A80681FD0BC015
:1058600000E010E020E030E048E050E060E070E070
:1058700083E228DA0BC000E010E020E030E048E0EE
:1058800050E060E070E083E20E94B2238091A806BD
:1058900080FD0BC000E010E020E030E040E150E08F
:1058A00060E070E084E20EDA0BC000E010E020E07F
:1058B00030E040E150E060E070E084E20E94B2231A
:1058C0008091880688235CF000E010E020E030E062
:1058D00040E250E060E070E085E2F4D90BC000E007
:1058E00010E020E030E040E250E060E070E085E26F
:1058F0000E94B2238091880686FD0BC000E010E074
:1059000020E030E040E450E060E070E086E2DAD988
:105910000BC000E010E020E030E040E450E060E048
:1059200070E086E20E94B2238091880684FD0BC05D
:1059300000E010E020E030E040E850E060E070E09F
:1059400087E2C0D90BC000E010E020E030E040E882
:1059500050E060E070E087E20E94B2238091880608
:1059600083FD0BC000E010E020E030E040E051E0BB
:1059700060E070E088E2A6D90BC000E010E020E013
:1059800030E040E051E060E070E088E20E94B22345
:105990008091880682FD0BC000E010E020E030E03E
:1059A00040E052E060E070E089E28CD90BC000E09A
:1059B00010E020E030E040E052E060E070E089E29A
:1059C0000E94B223E091FA29E5FF07C0F0E0E75119
:1059D000F64D80914829808329C0EE233CF4F0E005
:1059E000E358F64D80914829808320C08091482952
:1059F00090914529891778F090914229981758F08D
:105A000000E010E020E030E040E054E060E070E0D2
:105A10008AE258D90BC000E010E020E030E040E01E
:105A200054E060E070E08AE20E94B223E091FB293A
:105A3000E5FF07C0F0E0E751F64D809149298083EA
:105A400029C0EE233CF4F0E0E358F64D809149295B
:105A5000808320C08091492990914629891778F048
:105A600090914329981758F000E010E020E030E0D2
:105A700040E058E060E070E08BE224D90BC000E029
:105A800010E020E030E040E058E060E070E08BE2C1
:105A90000E94B223E091FC29E5FF07C0F0E0E75146
:105AA000F64D80914A29808329C0EE233CF4F0E032
:105AB000E358F64D80914A29808320C080914A297D
:105AC00090914729891778F090914429981758F0B8
:105AD00000E010E020E030E040E050E160E070E005
